{
  "contractName": "BlindAuction",
  "abi": [
    {
      "inputs": [
        {
          "internalType": "uint256",
          "name": "biddingTime",
          "type": "uint256"
        },
        {
          "internalType": "uint256",
          "name": "revealTime",
          "type": "uint256"
        },
        {
          "internalType": "address payable",
          "name": "beneficiaryAddress",
          "type": "address"
        }
      ],
      "stateMutability": "nonpayable",
      "type": "constructor"
    },
    {
      "inputs": [],
      "name": "AuctionEndAlreadyCalled",
      "type": "error"
    },
    {
      "inputs": [
        {
          "internalType": "uint256",
          "name": "time",
          "type": "uint256"
        }
      ],
      "name": "TooEarly",
      "type": "error"
    },
    {
      "inputs": [
        {
          "internalType": "uint256",
          "name": "time",
          "type": "uint256"
        }
      ],
      "name": "TooLate",
      "type": "error"
    },
    {
      "anonymous": false,
      "inputs": [
        {
          "indexed": false,
          "internalType": "address",
          "name": "winner",
          "type": "address"
        },
        {
          "indexed": false,
          "internalType": "uint256",
          "name": "highestBid",
          "type": "uint256"
        }
      ],
      "name": "AuctionEnded",
      "type": "event"
    },
    {
      "inputs": [],
      "name": "beneficiary",
      "outputs": [
        {
          "internalType": "address payable",
          "name": "",
          "type": "address"
        }
      ],
      "stateMutability": "view",
      "type": "function",
      "constant": true
    },
    {
      "inputs": [],
      "name": "biddingEnd",
      "outputs": [
        {
          "internalType": "uint256",
          "name": "",
          "type": "uint256"
        }
      ],
      "stateMutability": "view",
      "type": "function",
      "constant": true
    },
    {
      "inputs": [
        {
          "internalType": "address",
          "name": "",
          "type": "address"
        },
        {
          "internalType": "uint256",
          "name": "",
          "type": "uint256"
        }
      ],
      "name": "bids",
      "outputs": [
        {
          "internalType": "bytes32",
          "name": "blindedBid",
          "type": "bytes32"
        },
        {
          "internalType": "uint256",
          "name": "deposit",
          "type": "uint256"
        }
      ],
      "stateMutability": "view",
      "type": "function",
      "constant": true
    },
    {
      "inputs": [],
      "name": "ended",
      "outputs": [
        {
          "internalType": "bool",
          "name": "",
          "type": "bool"
        }
      ],
      "stateMutability": "view",
      "type": "function",
      "constant": true
    },
    {
      "inputs": [],
      "name": "highestBid",
      "outputs": [
        {
          "internalType": "uint256",
          "name": "",
          "type": "uint256"
        }
      ],
      "stateMutability": "view",
      "type": "function",
      "constant": true
    },
    {
      "inputs": [],
      "name": "highestBidder",
      "outputs": [
        {
          "internalType": "address",
          "name": "",
          "type": "address"
        }
      ],
      "stateMutability": "view",
      "type": "function",
      "constant": true
    },
    {
      "inputs": [],
      "name": "revealEnd",
      "outputs": [
        {
          "internalType": "uint256",
          "name": "",
          "type": "uint256"
        }
      ],
      "stateMutability": "view",
      "type": "function",
      "constant": true
    },
    {
      "inputs": [
        {
          "internalType": "bytes32",
          "name": "blindedBid",
          "type": "bytes32"
        }
      ],
      "name": "bid",
      "outputs": [],
      "stateMutability": "payable",
      "type": "function",
      "payable": true
    },
    {
      "inputs": [
        {
          "internalType": "uint256[]",
          "name": "values",
          "type": "uint256[]"
        },
        {
          "internalType": "bool[]",
          "name": "fakes",
          "type": "bool[]"
        },
        {
          "internalType": "bytes32[]",
          "name": "secrets",
          "type": "bytes32[]"
        }
      ],
      "name": "reveal",
      "outputs": [],
      "stateMutability": "nonpayable",
      "type": "function"
    },
    {
      "inputs": [],
      "name": "withdraw",
      "outputs": [],
      "stateMutability": "nonpayable",
      "type": "function"
    },
    {
      "inputs": [],
      "name": "auctionEnd",
      "outputs": [],
      "stateMutability": "nonpayable",
      "type": "function"
    }
  ],
  "bytecode": "0x60806040523480156200001157600080fd5b506040516200133d3803806200133d83398181016040528101906200003791906200014f565b806000806101000a81548173ffffffffffffffffffffffffffffffffffffffff021916908373ffffffffffffffffffffffffffffffffffffffff1602179055508242620000859190620001da565b600181905550816001546200009b9190620001da565b60028190555050505062000237565b600080fd5b6000819050919050565b620000c481620000af565b8114620000d057600080fd5b50565b600081519050620000e481620000b9565b92915050565b600073ffffffffffffffffffffffffffffffffffffffff82169050919050565b60006200011782620000ea565b9050919050565b62000129816200010a565b81146200013557600080fd5b50565b60008151905062000149816200011e565b92915050565b6000806000606084860312156200016b576200016a620000aa565b5b60006200017b86828701620000d3565b93505060206200018e86828701620000d3565b9250506040620001a18682870162000138565b9150509250925092565b7f4e487b7100000000000000000000000000000000000000000000000000000000600052601160045260246000fd5b6000620001e782620000af565b9150620001f483620000af565b9250827fffffffffffffffffffffffffffffffffffffffffffffffffffffffffffffffff038211156200022c576200022b620001ab565b5b828201905092915050565b6110f680620002476000396000f3fe60806040526004361061009c5760003560e01c8063423b217f11610064578063423b217f14610163578063900f080a1461018e57806391f90157146101b7578063957bb1e0146101e2578063a6e66477146101fe578063d57bde79146102295761009c565b806301495c1c146100a157806312fa6feb146100df5780632a24f46c1461010a57806338af3eed146101215780633ccfd60b1461014c575b600080fd5b3480156100ad57600080fd5b506100c860048036038101906100c39190610ae1565b610254565b6040516100d6929190610b49565b60405180910390f35b3480156100eb57600080fd5b506100f4610295565b6040516101019190610b8d565b60405180910390f35b34801561011657600080fd5b5061011f6102a8565b005b34801561012d57600080fd5b5061013661041a565b6040516101439190610bc9565b60405180910390f35b34801561015857600080fd5b5061016161043e565b005b34801561016f57600080fd5b5061017861051b565b6040516101859190610be4565b60405180910390f35b34801561019a57600080fd5b506101b560048036038101906101b09190610d10565b610521565b005b3480156101c357600080fd5b506101cc6107fb565b6040516101d99190610dd3565b60405180910390f35b6101fc60048036038101906101f79190610e1a565b610821565b005b34801561020a57600080fd5b506102136108ff565b6040516102209190610be4565b60405180910390f35b34801561023557600080fd5b5061023e610905565b60405161024b9190610be4565b60405180910390f35b6004602052816000526040600020818154811061027057600080fd5b9060005260206000209060020201600091509150508060000154908060010154905082565b600360009054906101000a900460ff1681565b6002548042116102ef57806040517f2a35a3240000000000000000000000000000000000000000000000000000000081526004016102e69190610be4565b60405180910390fd5b600360009054906101000a900460ff1615610336576040517f61cfdcf800000000000000000000000000000000000000000000000000000000815260040160405180910390fd5b7fdaec4582d5d9595688c8c98545fdd1c696d41c6aeaeb636737e84ed2f5c00eda600560009054906101000a900473ffffffffffffffffffffffffffffffffffffffff1660065460405161038b929190610e47565b60405180910390a16001600360006101000a81548160ff02191690831515021790555060008054906101000a900473ffffffffffffffffffffffffffffffffffffffff1673ffffffffffffffffffffffffffffffffffffffff166108fc6006549081150290604051600060405180830381858888f19350505050158015610416573d6000803e3d6000fd5b5050565b60008054906101000a900473ffffffffffffffffffffffffffffffffffffffff1681565b6000600760003373ffffffffffffffffffffffffffffffffffffffff1673ffffffffffffffffffffffffffffffffffffffff1681526020019081526020016000205490506000811115610518576000600760003373ffffffffffffffffffffffffffffffffffffffff1673ffffffffffffffffffffffffffffffffffffffff168152602001908152602001600020819055503373ffffffffffffffffffffffffffffffffffffffff166108fc829081150290604051600060405180830381858888f19350505050158015610516573d6000803e3d6000fd5b505b50565b60015481565b60015480421161056857806040517f2a35a32400000000000000000000000000000000000000000000000000000000815260040161055f9190610be4565b60405180910390fd5b6002548042106105af57806040517f691e56820000000000000000000000000000000000000000000000000000000081526004016105a69190610be4565b60405180910390fd5b6000600460003373ffffffffffffffffffffffffffffffffffffffff1673ffffffffffffffffffffffffffffffffffffffff16815260200190815260200160002080549050905080898990501461060557600080fd5b80878790501461061457600080fd5b80858590501461062357600080fd5b600080600090505b828110156107a7576000600460003373ffffffffffffffffffffffffffffffffffffffff1673ffffffffffffffffffffffffffffffffffffffff168152602001908152602001600020828154811061068657610685610e70565b5b9060005260206000209060020201905060008060008e8e868181106106ae576106ad610e70565b5b905060200201358d8d878181106106c8576106c7610e70565b5b90506020020160208101906106dd9190610ecb565b8c8c888181106106f0576106ef610e70565b5b9050602002013592509250925082828260405160200161071293929190610f82565b6040516020818303038152906040528051906020012084600001541461073b5750505050610794565b83600101548661074b9190610fee565b95508115801561075f575082846001015410155b156107835761076e338461090b565b1561078257828661077f9190611044565b95505b5b6000801b8460000181905550505050505b808061079f90611078565b91505061062b565b503373ffffffffffffffffffffffffffffffffffffffff166108fc829081150290604051600060405180830381858888f193505050501580156107ee573d6000803e3d6000fd5b5050505050505050505050565b600560009054906101000a900473ffffffffffffffffffffffffffffffffffffffff1681565b60015480421061086857806040517f691e568200000000000000000000000000000000000000000000000000000000815260040161085f9190610be4565b60405180910390fd5b600460003373ffffffffffffffffffffffffffffffffffffffff1673ffffffffffffffffffffffffffffffffffffffff1681526020019081526020016000206040518060400160405280848152602001348152509080600181540180825580915050600190039060005260206000209060020201600090919091909150600082015181600001556020820151816001015550505050565b60025481565b60065481565b6000600654821161091f5760009050610a3d565b600073ffffffffffffffffffffffffffffffffffffffff16600560009054906101000a900473ffffffffffffffffffffffffffffffffffffffff1673ffffffffffffffffffffffffffffffffffffffff16146109f05760065460076000600560009054906101000a900473ffffffffffffffffffffffffffffffffffffffff1673ffffffffffffffffffffffffffffffffffffffff1673ffffffffffffffffffffffffffffffffffffffff16815260200190815260200160002060008282546109e89190610fee565b925050819055505b8160068190555082600560006101000a81548173ffffffffffffffffffffffffffffffffffffffff021916908373ffffffffffffffffffffffffffffffffffffffff160217905550600190505b92915050565b600080fd5b600080fd5b600073ffffffffffffffffffffffffffffffffffffffff82169050919050565b6000610a7882610a4d565b9050919050565b610a8881610a6d565b8114610a9357600080fd5b50565b600081359050610aa581610a7f565b92915050565b6000819050919050565b610abe81610aab565b8114610ac957600080fd5b50565b600081359050610adb81610ab5565b92915050565b60008060408385031215610af857610af7610a43565b5b6000610b0685828601610a96565b9250506020610b1785828601610acc565b9150509250929050565b6000819050919050565b610b3481610b21565b82525050565b610b4381610aab565b82525050565b6000604082019050610b5e6000830185610b2b565b610b6b6020830184610b3a565b9392505050565b60008115159050919050565b610b8781610b72565b82525050565b6000602082019050610ba26000830184610b7e565b92915050565b6000610bb382610a4d565b9050919050565b610bc381610ba8565b82525050565b6000602082019050610bde6000830184610bba565b92915050565b6000602082019050610bf96000830184610b3a565b92915050565b600080fd5b600080fd5b600080fd5b60008083601f840112610c2457610c23610bff565b5b8235905067ffffffffffffffff811115610c4157610c40610c04565b5b602083019150836020820283011115610c5d57610c5c610c09565b5b9250929050565b60008083601f840112610c7a57610c79610bff565b5b8235905067ffffffffffffffff811115610c9757610c96610c04565b5b602083019150836020820283011115610cb357610cb2610c09565b5b9250929050565b60008083601f840112610cd057610ccf610bff565b5b8235905067ffffffffffffffff811115610ced57610cec610c04565b5b602083019150836020820283011115610d0957610d08610c09565b5b9250929050565b60008060008060008060608789031215610d2d57610d2c610a43565b5b600087013567ffffffffffffffff811115610d4b57610d4a610a48565b5b610d5789828a01610c0e565b9650965050602087013567ffffffffffffffff811115610d7a57610d79610a48565b5b610d8689828a01610c64565b9450945050604087013567ffffffffffffffff811115610da957610da8610a48565b5b610db589828a01610cba565b92509250509295509295509295565b610dcd81610a6d565b82525050565b6000602082019050610de86000830184610dc4565b92915050565b610df781610b21565b8114610e0257600080fd5b50565b600081359050610e1481610dee565b92915050565b600060208284031215610e3057610e2f610a43565b5b6000610e3e84828501610e05565b91505092915050565b6000604082019050610e5c6000830185610dc4565b610e696020830184610b3a565b9392505050565b7f4e487b7100000000000000000000000000000000000000000000000000000000600052603260045260246000fd5b610ea881610b72565b8114610eb357600080fd5b50565b600081359050610ec581610e9f565b92915050565b600060208284031215610ee157610ee0610a43565b5b6000610eef84828501610eb6565b91505092915050565b6000819050919050565b610f13610f0e82610aab565b610ef8565b82525050565b60008160f81b9050919050565b6000610f3182610f19565b9050919050565b6000610f4382610f26565b9050919050565b610f5b610f5682610b72565b610f38565b82525050565b6000819050919050565b610f7c610f7782610b21565b610f61565b82525050565b6000610f8e8286610f02565b602082019150610f9e8285610f4a565b600182019150610fae8284610f6b565b602082019150819050949350505050565b7f4e487b7100000000000000000000000000000000000000000000000000000000600052601160045260246000fd5b6000610ff982610aab565b915061100483610aab565b9250827fffffffffffffffffffffffffffffffffffffffffffffffffffffffffffffffff0382111561103957611038610fbf565b5b828201905092915050565b600061104f82610aab565b915061105a83610aab565b92508282101561106d5761106c610fbf565b5b828203905092915050565b600061108382610aab565b91507fffffffffffffffffffffffffffffffffffffffffffffffffffffffffffffffff82036110b5576110b4610fbf565b5b60018201905091905056fea2646970667358221220556608b66223114b0a1b1acbe89c12695164ebf565dd4d62f5949f16251b6b9b64736f6c634300080d0033",
  "immutableReferences": {},
  "source": "// SPDX-License-Identifier: GPL-3.0\r\npragma solidity ^0.8.4;\r\n\r\ncontract BlindAuction {\r\n    struct Bid {\r\n        bytes32 blindedBid;\r\n        uint deposit;\r\n    }\r\n    address payable public beneficiary;\r\n    uint public biddingEnd;\r\n    uint public revealEnd;\r\n    bool public ended;\r\n\r\n    mapping(address => Bid[]) public bids;\r\n\r\n    address public highestBidder;\r\n    uint public highestBid;\r\n\r\n    // Allowed withdrawals of previous bids\r\n    mapping(address => uint) pendingReturns;\r\n\r\n    event AuctionEnded(address winner, uint highestBid);\r\n\r\n    /// The function has been called too early. Try again at `time`.\r\n    error TooEarly(uint time);\r\n\r\n    /// The function has been called too late. It cannot be called after `time`.\r\n    error TooLate(uint time);\r\n\r\n    /// The function auctionEnd has already been called.\r\n    error AuctionEndAlreadyCalled();\r\n\r\n    // Modifiers are a convenient way to validate inputs to functions. `onlyBefore` is applied to `bid` below: The new function body is the modifier's body where `_` is replaced by the old function body.\r\n    modifier onlyBefore(uint time) { \r\n        if (block.timestamp >= time) revert TooLate(time);\r\n        _;\r\n    }\r\n    modifier onlyAfter(uint time) {\r\n        if (block.timestamp <= time) revert TooEarly(time);\r\n        _;\r\n    }\r\n\r\n    constructor(\r\n        uint biddingTime,\r\n        uint revealTime,\r\n        address payable beneficiaryAddress\r\n    ) {\r\n        beneficiary = beneficiaryAddress;\r\n        biddingEnd = block.timestamp + biddingTime;\r\n        revealEnd = biddingEnd + revealTime;\r\n    }\r\n\r\n    /// Place a blinded bid with `blindedBid` = keccak256(abi.encodePacked(value, fake, secret)). The sent ether is only refunded if the bid is correctly revealed in the revealing phase. The bid is valid if the ether sent together with the bid is at least \"value\" and \"fake\" is not true. Setting \"fake\" to true and sending not the exact amount are ways to hide the real bid but still make the required deposit. The same address can place multiple bids.\r\n    function bid(bytes32 blindedBid) external payable onlyBefore(biddingEnd) {\r\n        bids[msg.sender].push(Bid({\r\n            blindedBid: blindedBid,\r\n            deposit: msg.value\r\n        }));\r\n    }\r\n\r\n    /// Reveal your blinded bids. You will get a refund for all correctly blinded invalid bids and for all bids except for the totally highest.\r\n    function reveal(uint[] calldata values, bool[] calldata fakes, bytes32[] calldata secrets) external onlyAfter(biddingEnd) onlyBefore(revealEnd) {\r\n        uint length = bids[msg.sender].length;\r\n        require(values.length == length);\r\n        require(fakes.length == length);\r\n        require(secrets.length == length);\r\n\r\n        uint refund;\r\n        for (uint i = 0; i < length; i++) {\r\n            Bid storage bidToCheck = bids[msg.sender][i];\r\n            (uint value, bool fake, bytes32 secret) = (values[i], fakes[i], secrets[i]);\r\n            if (bidToCheck.blindedBid != keccak256(abi.encodePacked(value, fake, secret))) {\r\n                // Bid was not actually revealed.\r\n                // Do not refund deposit.\r\n                continue;\r\n            }\r\n            refund += bidToCheck.deposit;\r\n            if (!fake && bidToCheck.deposit >= value) {\r\n                if (placeBid(msg.sender, value))\r\n                    refund -= value;\r\n            }\r\n            // Make it impossible for the sender to re-claim the same deposit.\r\n            bidToCheck.blindedBid = bytes32(0);\r\n        }\r\n        payable(msg.sender).transfer(refund);\r\n    }\r\n\r\n    /// Withdraw a bid that was overbid.\r\n    function withdraw() external {\r\n        uint amount = pendingReturns[msg.sender];\r\n        if (amount > 0) {\r\n            // It is important to set this to zero because the recipient can call this function again as part of the receiving call before `transfer` returns (see the remark above about conditions -> effects -> interaction).\r\n            pendingReturns[msg.sender] = 0;\r\n\r\n            payable(msg.sender).transfer(amount);\r\n        }\r\n    }\r\n\r\n    /// End the auction and send the highest bid to the beneficiary.\r\n    function auctionEnd() external onlyAfter(revealEnd) {\r\n        if (ended) revert AuctionEndAlreadyCalled();\r\n        emit AuctionEnded(highestBidder, highestBid);\r\n        ended = true;\r\n        beneficiary.transfer(highestBid);\r\n    }\r\n\r\n    // This is an \"internal\" function which means that it can only be called from the contract itself (or from derived contracts).\r\n    function placeBid(address bidder, uint value) internal returns (bool success) {\r\n        if (value <= highestBid) {\r\n            return false;\r\n        }\r\n        if (highestBidder != address(0)) {\r\n            // Refund the previously highest bidder.\r\n            pendingReturns[highestBidder] += highestBid;\r\n        }\r\n        highestBid = value;\r\n        highestBidder = bidder;\r\n        return true;\r\n    }\r\n}",
  "sourcePath": "E:\\Sprint\\Blockchain exercise\\SimpleAuction\\contracts\\BlindAuction.sol",
  "compiler": {
    "name": "solc",
    "version": "0.8.13+commit.abaa5c0e.Emscripten.clang"
  },
  "schemaVersion": "3.4.16",
  "updatedAt": "2024-01-27T11:17:25.118Z",
  "networkType": "ethereum",
  "devdoc": {
    "kind": "dev",
    "methods": {},
    "version": 1
  },
  "userdoc": {
    "errors": {
      "AuctionEndAlreadyCalled()": [
        {
          "notice": "The function auctionEnd has already been called."
        }
      ],
      "TooEarly(uint256)": [
        {
          "notice": "The function has been called too early. Try again at `time`."
        }
      ],
      "TooLate(uint256)": [
        {
          "notice": "The function has been called too late. It cannot be called after `time`."
        }
      ]
    },
    "kind": "user",
    "methods": {
      "auctionEnd()": {
        "notice": "End the auction and send the highest bid to the beneficiary."
      },
      "bid(bytes32)": {
        "notice": "Place a blinded bid with `blindedBid` = keccak256(abi.encodePacked(value, fake, secret)). The sent ether is only refunded if the bid is correctly revealed in the revealing phase. The bid is valid if the ether sent together with the bid is at least \"value\" and \"fake\" is not true. Setting \"fake\" to true and sending not the exact amount are ways to hide the real bid but still make the required deposit. The same address can place multiple bids."
      },
      "reveal(uint256[],bool[],bytes32[])": {
        "notice": "Reveal your blinded bids. You will get a refund for all correctly blinded invalid bids and for all bids except for the totally highest."
      },
      "withdraw()": {
        "notice": "Withdraw a bid that was overbid."
      }
    },
    "version": 1
  }
}